:100000002FC100004EC100004CC100004AC10000D9
:1000100048C1000046C1000044C1000042C10000C8
:1000200040C100003EC100003CC100003AC10000D8
:1000300038C1000036C1000034C1000032C10000E8
:1000400030C100002EC100002CC100002AC10000F8
:1000500028C1000026C1000024C1000022C1000008
:1000600020C100001EC100001CC100001AC1000018
:1000700018C1000016C1000014C1000012C1000028
:1000800010C100000EC100000CC100000AC1000038
:1000900008C1000006C1000004C1000002C1000048
:1000A00000C10000FEC00000FCC00000FAC000005B
:1000B000F8C00000F6C00000F4C00000F2C000006C
:1000C000F0C00000EEC00000ECC00000EAC000007C
:1000D000E8C00000E6C00000E4C00000E2C000008C
:1000E000E0C0000007634236B79BD8A71A396856AC
:1000F00018AEBAAB558C1D3CB7CC5763BD6DEDFD4A
:10010000753EF6177231BF000000803F0800000006
:10011000BE922449123EABAAAA2ABECDCCCC4C3EFC
:1001200000000080BEABAAAAAA3E00000000BF00EB
:100130000000803F0000000000084178D3BB4387E7
:10014000D1133D190E3CC3BD4282AD2B3E68EC82FB
:1001500076BED98FE1A93E4C80EFFFBE01C4FF7F80
:100160003F000000000000407A10F35A00A0724ED9
:1001700018090010A5D4E80000E87648170000E44C
:100180000B54020000CA9A3B000000E1F505000094
:1001900080969800000040420F000000A0860100F9
:1001A0000000102700000000E803000000006400C9
:1001B000000000000A000000000001000000000034
:1001C0002C76D888DC674F0823DFC1DFAE59E1B158
:1001D000B796E5E3E453C63AE651997696E8E6C267
:1001E0008426EB898C9B62ED407C6FFCEFBC9C9F6E
:1001F00040F2BAA56FA5F490055A2AF75C936B6C90
:10020000F9676DC11BFCE0E40D47FEF520E6B50083
:10021000D0ED902E0300943577050080841E0800F1
:1002200000204E0A000000C80C333333330F986EA1
:1002300012831141EF8D2114893BE65516CFFEE65E
:10024000DB18D1844B381BF77C1D901DA4BBE42424
:10025000203284725E228100C9F124ECA1E53D27A1
:1002600011241FBECFEFD1E2DEBFCDBF00E00CBF37
:1002700013E0A0E0B2E0EAEFF1E400E00BBF02C05F
:1002800007900D92A23AB107D9F728E0A2EAB3E0AD
:1002900001C01D92A531B207E1F70E9434170C94FA
:1002A000FB20AECE87E480937C0087EE80937A00BB
:1002B00010927B000895F6CF0895CF92DF92EF92CF
:1002C000FF920F931F93CF93DF93CDB7DEB7C65442
:1002D000D1090FB6F894DEBF0FBECDBF6091780094
:1002E0007091790080E090E00E941B196B017C0105
:1002F0006093AE037093AF038093B0039093B10308
:100300006091040270910502072E000C880B990B76
:100310000E941D199B01AC01C701B6010E94B318D0
:10032000209100023091010240910202509103029B
:100330000E94A9196093B6037093B7038093B80322
:100340009093B9037E0123E3E20EF11C870123E0C1
:1003500043E00E94AC1BFF92EF928EE092E09F93ED
:100360008F93025311091F930F930E94D21BB80160
:1003700080EC90E00E94D116C0900602D090070257
:10038000E0900802F090090220E030E040EA50E4FA
:10039000C701B6010E94A9192091B6033091B70395
:1003A0004091B8035091B9030E94B318A701960178
:1003B0000E944E186093B2037093B3038093B4030A
:1003C0009093B50320910A0230910B0240910C02E8
:1003D00050910D020E94B3186093AA037093AB036F
:1003E0008093AC039093AD032DEC3CEC4CEC5EE3BE
:1003F0000E94A91922E03BE247EB5FEB0E940C1A36
:100400006093A6037093A7038093A8039093A90316
:100410000F900F900F900F900F900F90CA5BDF4FCF
:100420000FB6F894DEBF0FBECDBFDF91CF911F9105
:100430000F91FF90EF90DF90CF90089580E00895A6
:100440000E945E1591E0811101C090E0892F08950E
:100450008F929F92AF92BF92CF92DF92EF92FF92D4
:100460000F931F93CF93DF93EB014801A12CB12C85
:1004700081149104A104B104D1F0820E931EA41E34
:10048000B51E69017A01AE01C701B6010E94F015DF
:10049000DE5F81110EC08FEFC81AD80AE80AF80A89
:1004A000C814D904EA04FB0471F780E003C080E0BB
:1004B00001C081E0DF91CF911F910F91FF90EF90EC
:1004C000DF90CF90BF90AF909F908F9008958F92C4
:1004D0009F92AF92BF92CF92DF92EF92FF920F93D3
:1004E0001F93CF93DF93EB014801A12CB12C811412
:1004F0009104A104B104D1F0820E931EA41EB51E76
:1005000069017A01AE01C701B6010E941916DE5FCA
:1005100081110EC08FEFC81AD80AE80AF80AC81469
:10052000D904EA04FB0471F780E003C080E001C055
:1005300081E0DF91CF911F910F91FF90EF90DF90BD
:10054000CF90BF90AF909F908F90089580E00895D6
:10055000FC016381862F90E0A0E0B0E0BA2FA92FC4
:10056000982F88272281822BBA2FA92F982F88278E
:100570002181822BBA2FA92F982F88272081BC0197
:10058000CD01622B08954115510551F0A62FB72FCB
:10059000FC01480F591F9D919193E417F507D9F776
:1005A00008950F931F93FC019A01AB01225031096A
:1005B0004109510983899489A589B6890297A109BE
:1005C000B109281739074A075B0768F4A185B28586
:1005D0000E94931B07A110A521A532A5600F711FD2
:1005E000821F931F03C060E070E0CB011F910F9149
:1005F0000895CF93DF93EC01A881B9811097F1F0B2
:100600009D012F5F3F4FF90131979081913218F092
:100610009A33B9F702C09A33A1F48C9190ED980FF8
:100620009A3090F412962A173B0789F490E0C0970D
:10063000181619067CF0398328830EC08FEF9FEFC0
:100640000BC080E090E008C08FEF9FEF05C08FEFF8
:100650009FEF02C08FEF9FEFDF91CF9108950F932F
:100660001F93CF93DF93EC018B01892BD9F0E881A5
:10067000F9813097B9F080818823A1F02A813B81EC
:10068000858196812817390769F48181D7DE80FD3D
:1006900009C004C0F8013183208308C02881398152
:1006A00080E0F8CF89E020E030E0F4CFDF91CF9117
:1006B0001F910F9108958F929F92AF92BF92EF92E8
:1006C000FF920F931F93CF93DF93FC01238122238B
:1006D000C1F1EC017C01FFE2EF0EF11C2BA53CA562
:1006E0004DA55EA501E010E0B7018981F0DE811122
:1006F0002AC01B820BA51CA52DA53EA58F89988D10
:10070000A98DBA8D8F8C98A0A9A0BAA0B901A80113
:10071000481959096A097B09481759076A077B076D
:10072000A0F46A81623099F4A9019801280F391F59
:100730004A1F5B1F01E010E0B7018981C8DE80E03D
:1007400007C080E005C081E003C080E001C080E018
:10075000DF91CF911F910F91FF90EF90BF90AF90DD
:100760009F908F9008958F929F92AF92BF92FF9229
:100770000F931F93CF93DF93EC014A015B018BA58D
:100780009CA5ADA5BEA584179507A607B707D9F008
:10079000CE0191DFF82E811117C001E010E0A50114
:1007A0009401BE01615D7F4F898152DE882331F063
:1007B000FF24F39488248A94982C54018BA69CA639
:1007C000ADA6BEA601C0F12C8F2DDF91CF911F9158
:1007D0000F91FF90BF90AF909F908F9008958F9250
:1007E0009F92AF92BF92CF92DF92EF92FF920F93C0
:1007F0001F93CF93DF937C014A015B015CDF811182
:1008000040C0B501A401C701CCDE4B015C01F7017A
:1008100063A774A785A796A76701FFE2CF0ED11C37
:10082000F601C701815D9D4F1192E817F907E1F7C5
:10083000F70181859285892B59F4C0E0D0E018C07A
:100840002196F70181859285C817D90718F010C045
:10085000C0E0D0E001E010E0A50194012C0F3D1FA5
:10086000411D511DB601F701818131DE882341F31D
:1008700081E0F701218532852C173D0719F480E0CE
:1008800001C081E0DF91CF911F910F91FF90EF9018
:10089000DF90CF90BF90AF909F908F9008950F936F
:1008A0001F93CF93DF93EC0106DF982F81115FC078
:1008B0008881833009F052C08C81813009F04EC0AC
:1008C000BE01615D7F4FFB01CE01815D9D4F1192A5
:1008D000E817F907E1F785E5FE01E35DFD4F808349
:1008E0008AEA3196808382E58FA788AB81E689AB5F
:1008F00091E49AAB22E77B9720833196208331964F
:100900009083319680833F85288999898A89319699
:1009100030833196208331969083319680833B8556
:100920002C859D858E853196308331962083319636
:100930009083319680838B8D9C8DAD8DBE8D9C0177
:10094000AD012F5F3F4F4F4F5F4F2BA73CA74DA7E8
:100950005EA701E010E08981BADD1C8240E050E032
:1009600060E08981F3DD91E0811101C090E0892F81
:10097000DF91CF911F910F9108952F923F924F9247
:100980005F926F927F928F929F92AF92BF92CF921F
:10099000DF92EF92FF920F931F93CF93DF9342303A
:1009A00051056105710508F4CCC0FC01C388D488E9
:1009B000E588F6884C155D056E057F0508F0C3C017
:1009C000280139016A017B01EC018081823009F440
:1009D00061C0833009F47EC0813009F0B6C05A018D
:1009E000B694A794A40EB51EC501892F99278695A4
:1009F000478D50A161A172A1480F591F611D711D42
:100A0000CF01B1DE182F8111C0C01E01FFE22F0EF1
:100A1000311C45012FEF821A920A31E0B322F10115
:100A2000EA0DFB1DC0FE1DC08081282F2F7030E114
:100A3000439EC0011124822B808381E08B834F8DE4
:100A400058A169A17AA1C401892F99278695480FD9
:100A5000591F611D711DCE0186DE882309F47BC0FC
:100A600076C0408281E08B834F8D58A169A17AA125
:100A7000C401892F99278695480F591F611D711D43
:100A8000CE0171DE882309F474C063C0408281E026
:100A90008B837BC0452F562F672F7727878D90A19B
:100AA000A1A1B2A1480F591F6A1F7B1FCF015BDEB6
:100AB000182F81116AC0FE01BF96CC0CDD1CE89492
:100AC000C0F881E0D822EC0DFD1D4082518281E00A
:100AD0008B835BC0878D90A1A1A1B2A1689416F809
:100AE00076956795579547951694D1F7480F591FF6
:100AF0006A1F7B1FCF0137DE182F811146C0EFE040
:100B00007E22CE018F96CC0CDD1CCC0CDD1CFCEFC4
:100B1000CF22F1E0DF22C80ED91EC60119DDDC01AB
:100B2000CB0188279927AA27B07F482A592A6A2A01
:100B30007B2AF601408251826282738281E08B833C
:100B400024C012E022C012E020C012E01EC0182F04
:100B50001CC0182F1AC0F1E09F22F101E80DF91D09
:100B6000689413F876946794579447941694D1F741
:100B70008DCF21E09222F101E80DF91D9081907F47
:100B8000852D8F70492E482A81CF812FDF91CF91FB
:100B90001F910F91FF90EF90DF90CF90BF90AF909B
:100BA0009F908F907F906F905F904F903F902F908D
:100BB0000895FB01228F338FDC018C91833029F45F
:100BC000CA01AA27BB27848B958B0895AF92BF9249
:100BD000CF92DF92EF92FF920F931F93CF93DF9309
:100BE000423051056105710508F4A1C0FC01C081C6
:100BF000D1818B899C89AD89BE89481759076A07BD
:100C00007B0708F099C06A017B018881823009F472
:100C10004BC0833009F469C0813009F092C08A0169
:100C200016950795040F151FC801892F99278695DA
:100C30004F8D58A169A17AA1480F591F611D711DDF
:100C4000CE0191DD811182C05801FFEFAF1ABF0ABA
:100C50001170FE01E00FF11F17A5C501892F99271B
:100C600086954F8D58A169A17AA1480F591F611D22
:100C7000711DCE0178DD81116DC081E0B822CA0DF1
:100C8000DB1D8FA5612F70E0782BC0FE09C0729527
:100C900062956F7067277F70672780E090E065C07E
:100CA0007F7080E090E061C0452F562F672F772737
:100CB0008F8D98A1A9A1BAA1480F591F6A1F7B1F48
:100CC000CE0151DD81114AC0AF96A601440F551FD8
:100CD0004E7F5170C40FD51F698170E0762F662753
:100CE0008881682B80E090E040C08F8D98A1A9A1F9
:100CF000BAA1689416F87695679557954795169416
:100D0000D1F7480F591F6A1F7B1FCE012CDD8111BF
:100D100029C0AF96A601440F551F440F551FCA01A5
:100D20008C7F91708C0F9D1F13DC9F701EC061E043
:100D300070E080E090E019C061E070E080E090E059
:100D400014C061E070E080E090E00FC06FEF7FEFD3
:100D5000CB010BC06FEF7FEFCB0107C06FEF7FEFD1
:100D6000CB0103C06FEF7FEFCB01DF91CF911F91DC
:100D70000F91FF90EF90DF90CF90BF90AF900895CC
:100D80004F925F926F927F928F929F92AF92BF929B
:100D9000CF92DF92EF92FF920F931F93CF93DF9347
:100DA000EC016A017B014115510580E2680771057C
:100DB00008F0B1C0DB01CA018F719927AA27BB27B0
:100DC000892B8A2B8B2B09F0A8C0088119814E87AB
:100DD0005F87688B798B8E809F80A884B98481140B
:100DE0009104A104B10461F5F8018081833040F0E1
:100DF00083A194A1A5A1B6A10097A105B105F1F425
:100E0000F80187819085A0E0B0E0B701A601689461
:100E100014F876956795579547951694D1F7481726
:100E200059076A077B0708F07AC083A194A1A5A19E
:100E3000B6A18E8B9F8BA88FB98F44C04C015D01EA
:100E4000F80141845284612C712C032E39E0440C4A
:100E5000551C661C771C3A95D1F7302DC414D50467
:100E6000E604F70438F1B501A401CE01AFDE4B0171
:100E70005C016F3F7F4F8F4F9F4F09F452C082E05C
:100E800088169104A104B10408F44DC0F8018389C7
:100E90009489A589B68988169906AA06BB0608F022
:100EA00044C0C418D508E608F708C414D504E604FD
:100EB000F704C8F6B501A401C80173DB6E8B7F8B04
:100EC000888F998F8A8A9B8AAC8ABD8A8E899F89EE
:100ED000A88DB98D0097A105B10549F1B701A6010B
:100EE000032E39E076956795579547953A95D1F752
:100EF000302D840F951FA61FB71F8E8B9F8BA88F39
:100F0000B98F015D1F4FF1E0DF22C00ED11EDB8ED5
:100F1000CA8E80E00DC082E00BC082E009C082E092
:100F200007C081E005C082E003C082E001C082E02A
:100F3000DF91CF911F910F91FF90EF90DF90CF90B5
:100F4000BF90AF909F908F907F906F905F904F90E9
:100F500008954F925F926F927F928F929F92AF927D
:100F6000BF92CF92DF92EF92FF920F931F93CF9396
:100F7000DF938C012A013B01FC01C081D181411525
:100F8000510561057105C9F48B849C84AD84BE84D0
:100F900081149104A104B10409F41DC18B899C89B9
:100FA000AD89BE8988169906AA06BB0608F417C142
:100FB000812C912C5401839412C108DE623071059A
:100FC0008105910508F4CFC06F3FFFEF7F078F07C2
:100FD0009F0709F4CDC0CB88DC88ED88FE886C15AE
:100FE0007D058E059F0508F0E5C003C17301620110
:100FF0002FEFC21AD20AE20AF20A8B899C89AD89C4
:10100000BE89C816D906EA06FB0628F0C12CD12CE9
:1010100076016894C1F8B701A601C801D7DD613037
:1010200071058105910509F4A7C06F3FEFEF7E07B9
:101030008E079E0709F4A5C0672B682B692BB1F0BA
:101040008B849C84AD84BE84F2E08F169104A1044D
:10105000B10408F4BAC08B899C89AD89BE89881611
:101060009906AA06BB0608F0B3C007C0C114D10494
:10107000E104F104C9F553014201750164012FEF48
:10108000C21AD20AE20AF20A8B899C89AD89BE890A
:10109000C816D906EA06FB0660F082E088169104BD
:1010A000A104B10408F471C0C12CD12C760168945C
:1010B000C1F8B701A601C80189DD61157105810577
:1010C000910591F0613071058105910509F461C0C8
:1010D0006F3F7F4F8F4F9F4F09F460C0C814D904F2
:1010E000EA04FB0461F65EC00FEF1FEF9801B70141
:1010F000A601CE0142DC81112FC0411451046104CC
:10110000710441F097018601B301A201CE0135DCE3
:10111000811122C0CB86DC86ED86FE864F855889FC
:1011200069897A898B899C89AD89BE890297A109D1
:10113000B10984179507A607B70740F04150510938
:10114000610971094F87588B698B7A8B8C8181601B
:101150008C83C701B6014DC0813041F161E070E080
:1011600080E090E046C061E070E080E090E041C047
:101170006FEF7FEFCB013DC061E070E080E090E079
:1011800038C06FEF7FEFCB0134C060E070E0CB017F
:1011900030C061E070E080E090E02BC06FEF7FEF47
:1011A000CB0127C060E070E0CB0123C06FEF7FEF81
:1011B000CB011FC06F85788989899A89611571056E
:1011C0008105910509F012CF14C05301420155CF9A
:1011D0005301420152CF812C912C540183946F858D
:1011E000788989899A89611571058105910509F0C8
:1011F00044CFDF91CF911F910F91FF90EF90DF903F
:10120000CF90BF90AF909F908F907F906F905F90A6
:101210004F9008954F925F926F927F92AF92BF92DC
:10122000CF92DF92EF92FF920F931F93CF93DF93B2
:101230005C016A017B01B901A80122E0C216D10458
:10124000E104F10408F460C0FC01C081D1818B8904
:101250009C89AD89BE89C816D906EA06FB0608F046
:1012600055C0411551056105710539F00FEF1FEFAC
:101270009801CE0182DB811150C0B701A601C501E2
:10128000A5DC2B013C01611571058105910509F46F
:101290003FC06130710581059105E1F16F3F7F4FDE
:1012A0008F4F9F4FC9F100E010E09801B701A601F0
:1012B000CE0163DB811131C08F859889A989BA89F4
:1012C0004B895C896D897E896A017B01E2E0CE1AD7
:1012D000D108E108F1088C159D05AE05BF0550F455
:1012E0000196A11DB11D8F87988BA98BBA8B8C811C
:1012F00081608C8373016201441655066606770689
:1013000008F4BBCF80E009C082E007C082E005C0DE
:1013100080E003C082E001C081E0DF91CF911F91A6
:101320000F91FF90EF90DF90CF90BF90AF907F90A4
:101330006F905F904F9008954F925F926F927F925F
:10134000AF92BF92CF92DF92EF92FF920F931F93D3
:10135000CF93DF938B01FC01C684D784E088F188AA
:10136000F0E2CF0ED11CE11CF11CC114D10420E22B
:10137000E206F10438F0FC01168A178A108E118EED
:1013800084E0C6C0FC0146895789608D718D411586
:1013900051056105710509F4AEC0EC01A080B18072
:1013A000D701C6019170AA27BB27892B8A2B8B2BCB
:1013B00009F092C04F5F5F4F6F4F7F4F468B578B47
:1013C000608F718F428953896489758941155105F0
:1013D00061057105D9F4F50187819085A0E0B0E041
:1013E000B701A601689414F87695679557954795C7
:1013F0001694D1F7481759076A077B0708F46CC0A1
:101400001E8A1F8A188E198E84E082C0F50181859C
:1014100092850197A0E0B0E026013701032E39E064
:1014200076946794579447943A95D1F7302D842158
:101430009521A621B721892B8A2B8B2B09F04CC033
:10144000CE01C4DB2B013C016230710581059105A1
:1014500008F453C06F3F7F4F8F4F9F4F09F44FC029
:10146000F50183899489A589B689481659066A06C3
:101470007B0630F1012B31F41E8A1F8A188E198EDB
:1014800084E046C04A895B896C897D89CE0161DD33
:101490002B013C01611571058105910591F16130C8
:1014A00071058105910579F16F3F2FEF7207820772
:1014B000920759F1AB01BC01C50191D9811127C037
:1014C0004A8A5B8A6C8A7D8AB301A201C50169D808
:1014D0006E8B7F8B888F998FCE86DF86E88AF98A1C
:1014E0008FE2A80EB11CE1E0DE22CA0CDB1CDB8E11
:1014F000CA8E80E00DC084E00BC082E009C081E0AC
:1015000007C087E005C082E003C081E001C081E040
:10151000DF91CF911F910F91FF90EF90DF90CF90CF
:10152000BF90AF907F906F905F904F900895EF9233
:10153000FF920F931F93CF938C01DC01ED90FC90F1
:1015400040E050E0BA011CDCC82F81111BC0F8013B
:1015500046895789608D718DC70105D9C82F8111C2
:1015600011C0D8015A96ED91FC915B978081853E20
:1015700069F0882359F061E070E0C801DDDEC82F12
:10158000882329F3C43031F1C11125C0F8014689FF
:101590005789608D718DC701E6D8C82F81111BC096
:1015A000D8015A96ED91FC915B97CF0180961192EC
:1015B000E817F907E1F7B801645E7F4F4BE050E0B0
:1015C000F801828D938D0E94C30281E0D7011396AA
:1015D0008C9301C0C7E08C2FCF911F910F91FF908A
:1015E000EF900895CF93DF93EC011B828FEF9FEF75
:1015F000DC018BA79CA7ADA7BEA7CE01B4D88111F3
:1016000071C0FE01E25DFD4F208130E0322F2227C4
:1016100031978081282B8FA58B3E21F0885E823008
:1016200008F05AC025354AEA340709F067C0FE01C0
:10163000EF57FF4F808190E086549109DE01AE574D
:10164000BF4FE4E2F2E06BE272E008C08D9141919D
:1016500090E0841B9109E617F70719F0892BB1F385
:1016600004C0892B09F441C059C08BAD90E0982F7C
:1016700088274AAD842BAC01415051094823592396
:10168000452B09F462C082E090E065C08CAD8823F0
:1016900019F190E0AC014150510984239523892B25
:1016A000D9F48FAD81508230B8F4FE01EF5BFF4F6B
:1016B000808190E0982F882731974081842B892B57
:1016C00059F03696808190E0982F8827CB5BDF4FCA
:1016D0004881842B892B61F425353A4A61F083E0F7
:1016E00090E039C084E090E036C080E090E033C004
:1016F00080E090E030C082E090E02DC08BAD90E0C3
:10170000982F88274AAD842BAC01415051094823BA
:101710005923452B99F083E090E01DC08BAD90E0FC
:10172000982F88274AAD842BAC014150510948239A
:101730005923452B51F082E090E00DC08115924075
:1017400009F4A4CF83E090E006C08115924009F42B
:101750009DCF82E090E0DF91CF9108952F923F924C
:101760004F925F926F927F928F929F92AF92BF92B1
:10177000CF92DF92EF92FF920F931F93CF93DF935D
:10178000CDB7DEB76E970FB6F894DEBF0FBECDBFF4
:101790006B01B42EDB011D921C920E94F9027C01A8
:1017A00099230CF468C2FC01EE0FFF1FEC55FC4FAF
:1017B000008111810115110509F45FC2F601118341
:1017C0000083FB2DFE7FBF2ED8018C91882369F00A
:1017D00011968C910E941E0280FD07C0BB2009F467
:1017E0004EC282FF4EC28AE0F2C2F8011082E1824C
:1017F0008E2D0E94200280FD46C2BB2009F469C2E2
:1018000082FD43C240E050E0BA01C801EBDE823005
:101810009105C1F54801FBE08F1AFEEF9F0A9E017A
:101820002F5F3F4F79016E0131E1C30ED11C57018B
:10183000C4010E94A802D5016D937D938D939D9361
:101840005D01B0E18B0E911CAC14BD0489F70F2E25
:10185000F3E0AF2EF02DB12CF70141915191619140
:1018600071917F01411551056105710531F0C80184
:10187000B9DE8230910518F436C28A2D9B2DCE1424
:10188000DF0451F78430910509F401C2029708F092
:1018900000C2D801DB968C91DB9790E0982F8827C7
:1018A000DA962C91822B8115924009F0F4C1F8014F
:1018B000EA5BFF4F8080912C982C8824319780819F
:1018C000882A940140E050E0298B3A8B4B8B5C8B4B
:1018D000232B242B252B49F4C8018D5A9F4F0E949E
:1018E000A802698B7A8B8B8B9C8BD8019B968D90F1
:1018F0009D90AD90BC909E9729893A894B895C89CF
:1019000057962D933D934D935C935A97DF967C9019
:10191000DF9712967C9212978FEF870D823008F036
:10192000BCC1DC963C90DC97832D90E01A969C938A
:101930008E931997009709F4B2C19C012150310987
:1019400082239323892B09F0ACC1F801EF5BFF4F91
:10195000808190E0982F882731972081FC01E22B2D
:10196000FE8BED8B1896FC93EE931797CF018F703B
:101970009927892B09F097C1F801ED5BFF4FC080D3
:10198000D12CDC2CCC2431978081C82AE12CF12C7D
:10199000C114D104E104F10439F4C801815B9F4F03
:1019A0000E94A8026B017C01D801DE96EC91DE97C3
:1019B000F0E0FE2FEE27DD968C91E82B309709F4AE
:1019C00074C1A72DB0E029893A894B895C890E94AE
:1019D000931B6B8F7C8F8D8F9E8F9F0140E050E01B
:1019E0002F8B388F498F5A8F8D899E89929582953A
:1019F0008F7089279F708927280F391F411D511D1E
:101A00004B8C5C8C6D8C7E8C420E531E641E751E3E
:101A1000C414D504E604F70408F449C1C701B601AB
:101A20006419750986099709232D30E040E050E0DC
:101A30000E94711BDA01C9012115310541055105CB
:101A400009F437C1263F6FEF360746076FE05607A8
:101A500030F40F2EF3E02F2E312CF02D02C0212C6C
:101A6000312C863FEFEF9E07A105B10520F4689465
:101A7000222421F8312C863F9F40A105B10508F4AE
:101A800079C12114310409F416C169017A0162E0B7
:101A9000C60ED11CE11CF11CD8015396CD92DD92EB
:101AA000ED92FC925697F801838E948EA58EB68E99
:101AB0008F89988DA98DBA8D880D991DAA1DBB1D82
:101AC000878F90A3A1A3B2A3B501A401440D551D16
:101AD000661D771D47A350A761A772A7F3E02F16D5
:101AE000310409F040C0F801E65AFF4F808190E0D0
:101AF000982F882731972081822B892B09F0DDC010
:101B00002D893E89232B09F0DAC0C801855A9F4FE1
:101B10000E94A802D80193966D937D938D939C9318
:101B20009697CC0CDD1CEE1CFF1CCC0CDD1CEE1CB7
:101B3000FF1CBFEFCB0EB1E0DB1EE11CF11C0B2E36
:101B4000B9E0F694E794D794C794BA95D1F7B02D3D
:101B500029893A894B895C892C153D054E055F051D
:101B600008F4AFC0ECC04D895E89452B09F4ABC0C9
:101B70004B8C5C8C6D8C7E8C480E591E6A1E7B1EB5
:101B8000D80193964D925D926D927C929697B2E0B9
:101B90002B16310429F4CC0CDD1CEE1CFF1CB6C046
:101BA000A3E0B0E0A70196010E94931BDC01CB01EA
:101BB000B695A79597958795E1E0CE22DD24EE2492
:101BC000FF24C80ED91EEA1EFB1EA0C0B501A40149
:101BD0004F5F5F4F6F4F7F4FC8010E94B30381116A
:101BE00039C0D80114961C92F801E25DFD4F808146
:101BF00090E0982F882731972081822B85359A4A4B
:101C000049F5C8018F960E94A80262357245814647
:101C1000914401F5C8018D5E9D4F0E94A802623774
:101C2000724781449146B1F4C801895E9D4F0E947C
:101C3000A802D8011F966D937D938D939C93529724
:101C4000C801855E9D4F0E94A802F80163877487D2
:101C500085879687D8012C928091A2039091A30347
:101C600001969093A3038093A20316969C938E9360
:101C7000159780E0ACC08BE0AAC08CE0A8C080E0E3
:101C8000A6C080E0A4C083E0A2C08AE0A0C081E03A
:101C90009EC08DE09CC08DE09AC08DE098C08DE024
:101CA00096C08DE094C08DE092C08DE090C08DE034
:101CB0008EC08DE08CC08DE08AC08DE088C08DE044
:101CC00086C08DE084C08DE082C081E080C08DE060
:101CD0007EC040E050E0BA01C80184DC823091054A
:101CE00009F0D0CD97CD049709F0D3CDEECF8FEF8B
:101CF0009FEFDC01F8018787908BA18BB28B8387E4
:101D00009487A587B68780E88483A4CFFFEFCF0EA2
:101D1000F1E0DF1EE11CF11C0B2EB9E0F694E79414
:101D2000D794C794BA95D1F7B02D29893A894B89B0
:101D30005C892C153D054E055F0548F2D8CF8FEF25
:101D40009FEFDC01F8018787908BA18BB28B838793
:101D50009487A587B68780E88483E05AFF4F808107
:101D600090E0982F882731972081822B019709F0E6
:101D700071CF2CCF69017A01F2E0CF0ED11CE11CAA
:101D8000F11CD8015396CD92DD92ED92FC925697BC
:101D9000F801838E948EA58EB68E8F89988DA98D2D
:101DA000BA8D880D991DAA1DBB1D878F90A3A1A375
:101DB000B2A3B501A401440D551D661D771D47A3AF
:101DC00050A761A772A722242394312CCCCE6E9603
:101DD0000FB6F894DEBF0FBECDBFDF91CF911F913C
:101DE0000F91FF90EF90DF90CF90BF90AF909F90BA
:101DF0008F907F906F905F904F903F902F900895BD
:101E00000F931F93DC01FB01938D692F70E0762FF8
:101E10006627828D682B80E090E02C91233079F446
:101E2000058910E0102F00272489022B20E030E0E4
:101E3000980111270027602B712B822B932B1F9168
:101E40000F9108952F923F924F925F926F927F92DF
:101E50008F929F92AF92BF92CF92DF92EF92FF92BA
:101E60000F931F93CF93DF9300D01F92CDB7DEB7B0
:101E70009C838B83DC012D903C90E62FF72F4F0144
:101E800081918F32E1F38C35D1F3EB81FC81DF015D
:101E90001682178210861186F4018081803258F4F0
:101EA00080E897968C93979740E050E0BA01CD0177
:101EB0000E94C0060FC14B805C80FCE14F0E511C9C
:101EC000EB80FC8027E2E20EF11C10E2A12CB12C89
:101ED00038E039831A8231014FE2640E711CF2013D
:101EE0001193EE15FF05E1F7F401CA2CDB2C20E07D
:101EF00030E068E070E02F5F3F4F01910132A8F1C0
:101F00000F3211F00C3561F4F401E20FF31F02C03F
:101F10002F5F3F4F81918F32D9F38C35C9F325C0A4
:101F20000E3209F4CFC0C616D70608F094C00023BD
:101F30000CF09DC0A02FAF77B0E0A55CBD4F0C9119
:101F400096C08D91882309F49AC090E048175907EC
:101F5000C1F786E0BFC00052D201AC0DBD1D0C938D
:101F6000A6014F5F5F4F6A01C6CF820E931ECD2838
:101F700009F473C0AB81BC815C968C915C97853E03
:101F800019F4E5E05C96EC93013210F080E001C0BA
:101F900084E0AB81BC8197968C939797CD90DC9031
:101FA000119740E050E0BA01CD010E94C0068111B6
:101FB0006CC0AB81BC8156964D915D916D917C91C9
:101FC0005997C6010E94B303811160C0EB81FC8167
:101FD000428D538DDA019C91992311F11B966C91DE
:101FE0001B97962F9F7394831B969C9193FF5BC0C6
:101FF0000FC021919D9130E0291B31094E175F07D9
:1020000019F0232BB1F304C0872F232B09F445C00B
:102010006A2D7B2D8B819C818FD9882351F236C00C
:10202000EB81FC8197A192FD1AC085E053C064FF4B
:1020300018C0AB81BC811E966D917C911F97717009
:10204000660D771DC101DCDEEB81FC816683778341
:102050008087918744CF86E03DC086E03BC084E026
:1020600039C085E037C086E035C086E033C0402FF8
:1020700050E042325105B9F3ADE2B2E062CF8FE9F0
:10208000800F8A3108F467CF67CF00C0AB81BC8175
:1020900097969C918430F1F4C6CFEB81FC8197A197
:1020A00092FFC5CF17C0FA01219130E0AB81BC810E
:1020B0005C969C915C97291B31095D96455F5F4F4B
:1020C000782F9FCF6B30710581F2C980DA806BE089
:1020D00070E011CF0F900F900F900F90DF91CF9184
:1020E0001F910F91FF90EF90DF90CF90BF90AF9036
:1020F0009F908F907F906F905F904F903F902F9028
:1021000008951F93CF93DF9300D000D0CDB7DEB7F3
:102110009C838B837E836D83142F7A836983CE01A6
:1021200001960E94F90299231CF1FC01EE0FFF1F9A
:10213000EC55FC4F0190F081E02D309709F01082B2
:10214000EB81FC81309709F01082880F991FFC0108
:10215000EC55FC4F8B819C8191838083112351F03E
:1021600040E0BE016D5F7F4FCE010596F7DA03C0F8
:102170008BE001C080E026960FB6F894DEBF0FBE5C
:10218000CDBFDF91CF911F9108952F923F924F9233
:102190005F926F927F928F929F92AF92BF92CF92F7
:1021A000DF92EF92FF920F931F93CF93DF93CDB700
:1021B000DEB7AC970FB6F894DEBF0FBECDBF7CA7DD
:1021C0006BA7009709F438C1142F7C01842F8F73FB
:1021D000D82E482FBE01675D7F4FCE018B96BEDAA9
:1021E000811126C189A59AA59A8389836BA57CA5AF
:1021F000CE01019627DE811121C188A588230CF02C
:1022000026C120C1843009F04AC1CE0101968FD980
:102210009D2D9860D92E882339F00AC18D81817156
:1022200009F066C112FD66C1D3FE5DC0EB8DFC8D69
:10223000168617869FE6908B82E5818BEB8DFC8D51
:10224000168A178A908F818FAB8CBC8C09A51AA532
:10225000B501C801D5DD2B013C0180E2F501838782
:102260006B8D7C8D20E030E0A901C8010E94D9056A
:10227000EB8DFC8D148E158E168E178EE9A5FAA5A2
:1022800081E08383411451046104710449F183A402
:1022900094A4A5A4B6A400E010E09801B301A201A3
:1022A000CE0101960E940A098111C2C0B501A401A4
:1022B00089A59AA50E94B303E9A5FAA591E0491A58
:1022C000510861087108438654866586768688239E
:1022D00039F0AEC011FF02C080FD0EC113FF03C074
:1022E000ED2DE064DE2EE9A5FAA583A594A5A5A5AC
:1022F000B6A5F701848F958FA68FB78F8B8D9C8D98
:1023000091A380A3AB8CBC8C09A51AA5B501C8010B
:1023100077DDF7016683778380879187C5014C96C7
:102320000E94A802F70162877387848795871183CB
:102330000083F80185819681F70193838283D68695
:102340001786108E118E128E138E108A118A128AA1
:10235000138A1701F2E22F0E311CF101C7018E5DC5
:102360009D4F1192E817F907E1F7D5FE91C0F701EB
:10237000428453846484758441145104610471045B
:1023800009F486C0408A518A628A738AF80181857D
:102390009285A0E0B0E04C015D01072E79E0880C49
:1023A000991CAA1CBB1C7A95D1F7702DF7014681A8
:1023B00057816085718584149504A604B70408F0DC
:1023C00058C0C7010E94E605AB01BC01423051056F
:1023D0006105710508F076C083C0C9A4DAA4C601FE
:1023E0000E94D102611571058105910509F452C061
:1023F000930182010F2EF9E03695279517950795E1
:10240000FA95D1F7F02DA9019801260F371F481F23
:10241000591FF701208F318F428F538F01E010E059
:10242000B101F60181810E942802811135C030C0BE
:10243000F7011182108264C089E062C0412F4C71A3
:1024400059F0E0CE412F4C7149F586E005C0812F4F
:102450008C7109F0E3CE27C08111EACF53CF8FEF03
:102460009FEFDC01F701848B958BA68BB78B81E006
:10247000DFCFF701448B558B668B778BD301C2017D
:102480009170AA27BB27892B8A2B8B2B09F0A5CF0C
:1024900080E036C082E0CCCF81E0CACF86E0FD2D5F
:1024A000F860DF2ED9CF8D8184FD28C013CF481866
:1024B00059086A087B0884149504A604B70408F434
:1024C00080CFD7CF4F3F8FEF58076807780779F74E
:1024D000C6CFF701448B558B668B778B82E0A8CFF4
:1024E0004F3FFFEF5F076F077F0709F4B8CFF1CFCA
:1024F00087E09ECF88E09CCF87E09ACF84E098CF9A
:10250000AC960FB6F894DEBF0FBECDBFDF91CF9172
:102510001F910F91FF90EF90DF90CF90BF90AF9001
:102520009F908F907F906F905F904F903F902F90F3
:1025300008952F923F924F925F926F927F928F9267
:102540009F92AF92BF92CF92DF92EF92FF920F9342
:102550001F93CF93DF93CDB7DEB72A970FB6F894CA
:10256000DEBF0FBECDBF7C014B016A015901F901ED
:10257000118210828F83F886BE016F5F7F4F0E94A9
:102580002F03811192C1F701878581118EC1868544
:1025900081FF8AC180899189A289B389AC01BD017B
:1025A0004C0D5D1D611D711D481759076A077B079A
:1025B00018F46C01C094D094C114D10409F46EC114
:1025C00097012E5D3F4F3A872987F70180899189CE
:1025D000A289B389AC01BD01517066277727452BCD
:1025E000462B472B09F015C1E981FA816184728479
:1025F000F1E06F1A7108AC01BD01032E39E0769548
:102600006795579547953A95D1F7302D64227522F5
:102610006114710409F049C0892B8A2B8B2B91F42A
:10262000F701668177818085918561157105810546
:102630009105B9F440E050E0BA018F8198850E947D
:10264000A90709C0F70144895589668977898F816F
:1026500098850E94A907611571058105910509F406
:102660001DC1613071058105910521F482E0F701FA
:1026700087871BC16F3FFFEF7F078F079F0721F4FD
:1026800081E0F701878711C1F701648B758B868B19
:10269000978B0681178120853185012B022B032B17
:1026A00021F46683778380879187F7018685882365
:1026B000BCF4208D318D428D538DE981FA8101E08A
:1026C00010E069857A8581810E946702882321F064
:1026D00081E0F7018787E9C0F70186858F778687D4
:1026E00029813A813E832D83F70144895589668982
:1026F0007789C9010E94D102611571058105910593
:1027000021F482E0F7018787D0C01B012C01260C41
:10271000371C411C511C9601232F332726953C83DF
:102720002B832115310509F447C0ED81FE81818598
:102730009285260D371D8217930728F49C012619D0
:1027400037093C832B830B811C81A2019101B401C9
:10275000ED81FE8181810E946702882321F081E062
:10276000F7018787A2C0F701808D918DA28DB38D6F
:1027700082199309A409B5092B813C81A90160E064
:1027800070E084179507A607B70780F4982F88276D
:10279000990FB401680F791F40E052E089859A854E
:1027A0000E94C302F70186858F7786876B807C80C5
:1027B000762C6624770C46C0F701808D918DA28D12
:1027C000B38D281639064A065B06F1F04089518917
:1027D0006289738982859385A485B58548175907D1
:1027E0006A077B0788F401E010E0A2019101698586
:1027F0007A85ED81FE8181810E942802882321F063
:1028000081E0F701878751C0F701208E318E428E1B
:10281000538EF70180899189917020E032E039016F
:10282000681A790AC614D70408F43601A301B40162
:1028300029853A85820F931F0E94C302F70186857E
:1028400080688687C618D708F50180819181860D3A
:10285000971D91838083860C971CF701808991894D
:10286000A289B389860D971DA11DB11D808B918B07
:10287000A28BB38B428553856485758548175907AC
:102880006A077B0710F4AC01BD01F701428753874B
:1028900064877587C114D10409F097CEF701868546
:1028A0008064868780E001C087E02A960FB6F8949E
:1028B000DEBF0FBECDBFDF91CF911F910F91FF9073
:1028C000EF90DF90CF90BF90AF909F908F907F90D0
:1028D0006F905F904F903F902F900895EF92FF92EE
:1028E0000F931F93CF93DF931F921F92CDB7DEB745
:1028F0007C01BE016F5F7F4F0E942F03811157C083
:10290000F701868586FF50C08823A4F4208D318D81
:10291000428D538DE981FA8101E010E0B7016E5DCF
:102920007F4F81810E946702811140C0F701868537
:102930008F778687F701448D558D668D778D8981D8
:102940009A810E94B303811132C0F70100A111A145
:10295000F801838580628387F7012681378140856E
:102960005185B801808191810E94D905F701328596
:10297000238594858585F801348F258F968F878FE1
:10298000168A178A8FE6808F82E5818F128A138AD2
:1029900089819A8121E0FC0123830E944F04F70181
:1029A00096859F7B968703C080E001C081E00F90F1
:1029B0000F90DF91CF911F910F91FF90EF900895AD
:1029C0000F931F93CF93DF931F921F92CDB7DEB764
:1029D0008C0184DF81110BC0BE016F5F7F4FC80186
:1029E0000E942F03811103C0F801118210820F9001
:1029F0000F90DF91CF911F910F910895CF92DF92A9
:102A0000EF92FF921F93CF93DF93182F6A017B0100
:102A10008091BE03811115C08FEE810F823040F08E
:102A200088EE810F823020F080EE810F823048F4F2
:102A30000B2EB9E0CC0CDD1CEE1CFF1CBA95D1F7B7
:102A4000B02D52D1812F806442D18F2D40D18E2D57
:102A50003ED18D2D3CD18C2D3AD1183019F487E818
:102A600036D106C085E933D103C0C15011F416C078
:102A7000C0E033D1D82F8F3FC1F381110FC01A337B
:102A800069F42BD186FF04C081E08093BE0302C0AD
:102A90001092BE0322D121D120D105C0163219F4E3
:102AA0001CD18823E9F319D121D18D2FDF91CF914A
:102AB0001F91FF90EF90DF90CF9008950F931F9399
:102AC000CF93DF93FCD01AE08FEF01D11150E1F7E3
:102AD0000BD140E050E0BA0180E090DFC0E2D0E0EE
:102AE00008C040E050E0BA0180E088DF219709F497
:102AF00065C08130B1F7FAD08FEFE9D08FEFE7D022
:102B00004AEA51E060E070E088E078DFCEEFD0E0A4
:102B10000DC04AEA51E060E070E088E06FDF219785
:102B200029F481E08093C30301E003C0813089F779
:102B300002E040E050E0BA0187E360DF40E050E0AF
:102B400060E070E489E25ADFCEEFD0E00DC040E0F3
:102B500050E0BA0187E352DF40E050E060E070E40B
:102B600089E24CDF219761F18111F1CF1092BE0310
:102B70000230C1F427C040E050E0BA018AE33EDFF2
:102B8000219719F41092C30302C08111F4CF8091F0
:102B9000BE03813021F482E08093C30303C083E04D
:102BA0008093C30340E050E0BA018BE327DF40E0AD
:102BB00052E060E070E080E121DF0CC011E00AC06B
:102BC00012E008C040E050E0BA018AE317DFCEEF20
:102BD000D0E0DBCF812FDF91CF911F910F9108952E
:102BE0000F931F93CF93DF93EA01AB01BC0181E107
:102BF00005DF811119C078D00AEE1DEF06C0015023
:102C0000110919F473D081E00FC067D08E3FB9F776
:102C10008E011E5F62D08993C017D107D9F75DD0AE
:102C20005CD05BD063D080E0DF91CF911F910F919A
:102C300008950F931F93CF93DF93EA01AB01BC017B
:102C400088E1DCDE811136C04FD08EEF40D08E019E
:102C50001E5F89913CD00C171D07D9F78FEF37D035
:102C60008FEF35D03AD0C82F8F71853059F03ED0D4
:102C70008C2F20C02196CA3E2DEFD20729F436D0E2
:102C800081E018C0C0E0D0E028D0882399F32ED08E
:102C90008FEF1DD029D009C0CE010196C93EDD4F6E
:102CA00018F024D081E006C0EC0117D08823A1F3EE
:102CB0001DD080E0DF91CF911F910F910895209A50
:102CC000229A2398219A82E58CBD1DBC08958EBD61
:102CD0000DB407FEFDCF8EB508958FEF8EBD0DB4F8
:102CE00007FEFDCF8EB5089528980895289A089577
:102CF0000F93CF93DF93EC01DB01CA018C5291401B
:102D0000A109B109853D904CA140B10508F03FC033
:102D100025502430E0F580E2888388E18983220F02
:102D20002A83053421F48A8180628A8305C00F34A6
:102D300019F48A8180638A83DB01CA0180589B472A
:102D4000A14EBF4F880F991FAA1FBB1F880F991F45
:102D5000AA1FBB1F880F991FAA1FBB1F440F551F17
:102D6000661F771F440F551F661F771F9A01AB011F
:102D7000220F331F441F551F220F331F441F551F9F
:102D8000BC01CD01AED4215031093D832C83DF91AC
:102D9000CF910F910895FC01908195FFFDCF66833F
:102DA00008950F931F93CF93DF93EB016881662300
:102DB00039F08C012196C801EEDF69916111FBCFDA
:102DC000DF91CF911F910F91089588B95F98A198D5
:102DD000A2980000A29A0000089592B988B95F9A5B
:102DE000A198A2980000A29A0000089589E2EDCF70
:102DF000089581E1EACF0895CF93C82F86E3E5DFF8
:102E00008C2F90E0EADFCF910895CF93C82F8AE30B
:102E1000DCDF8C2F90E0E1DFCF9108958AB18760ED
:102E20008AB99F9A8FEF81B987B984B3876084BBD1
:102E30005F9AA0982FEF89E698E12150804090405A
:102E4000E1F700C00000A09A2FEF88E596E021503E
:102E500080409040E1F700C00000CBDFC7DF88E092
:102E6000CBDF85E0D2CF0895CF93DF93CDB7DEB728
:102E7000CA5BD1090FB6F894DEBF0FBECDBF14B840
:102E800015B801E428E040E855E260E070E080EC2D
:102E900090E02EDF6BEB72E080EC90E082DF0E942E
:102EA0005B016EEC72E080EC90E07BDFB7DF69EEF7
:102EB00072E080EC90E075DF40E069E273E084EC62
:102EC00093E01FD94AE063E073E083EF95E05DD9BA
:102ED0009BE1EFE0F3E0DE01A75BBF4F01900D92B5
:102EE0009A95E1F781111BC09E01295B3F4F4AE192
:102EF00050E0BE01675B7F4F83EF95E01ADB83EF05
:102F000095E05EDD81110BC029968EAD9FAD2997AE
:102F10004A9729F46AE273E080EC90E042DFCE0148
:102F200001966C017E0193E3E90EF11C0F2EF5E78B
:102F3000AF2EF3E0BF2EF02D2C2C3D2C8E2C9F2C91
:102F4000CE0183559F4FC954DF4F99838883C75B58
:102F5000D040C297C754DF4F99838883C95BD04064
:102F60001F9BFECF65E473E080EC90E01ADF6CE518
:102F700073E080EC90E015DF0E945D012B013C01C5
:102F80009FEF29E688E1915020408040E1F700C0A2
:102F90000000F60101900020E9F73197AF014C19CC
:102FA0005D0960E370E0822D932DF5D3F701019068
:102FB0000020E9F73197AF014E195F0960E370E037
:102FC000882D992DE8D3082D192D23E043E0C30166
:102FD000B201C2D3FF92EF92BF92AF92DF92CF9233
:102FE000E1D3622D732D80EC90E0DBDE42E363E001
:102FF00073E083EF95E0C9D80F900F900F900F907A
:103000000F900F908111ACCF8E0103551F4F23E01D
:1030100043E0C301B201A0D3C854DF4F9881C85B1D
:10302000D0409F93C954DF4F2881C75BD0402F9376
:1030300088E893E09F938F93C654DF4F8881CA5BE3
:10304000D0408F93C754DF4F9881C95BD0409F9386
:10305000A9D33C019E01295B3F4FAC01BE016558DD
:103060007F4F83EF95E065DA83EF95E0A9DC0F9061
:103070000F900F900F900F900F90811171CF2996A4
:103080008EAD9FAD29976816790609F069CFBE010C
:1030900065587F4F80EC90E084DE62CF5058BB27AC
:1030A000AA270ED01CC10DD130F012D120F031F47E
:1030B0009F3F11F41EF402C10EF4E095E7FBF8C047
:1030C000E92F1ED180F3BA176207730784079507AB
:1030D00018F071F49EF536C10EF4E0950B2EBA2F60
:1030E000A02D0B01B90190010C01CA01A00111240E
:1030F000FF27591B99F0593F50F4503E68F11A16BA
:10310000F040A22F232F342F4427585FF3CF46954A
:1031100037952795A795F0405395C9F77EF41F166C
:10312000BA0B620B730B840BBAF09150A1F0FF0F36
:10313000BB1F661F771F881FC2F70EC0BA0F621F22
:10314000731F841F48F4879577956795B795F79512
:103150009E3F08F0B3CF9395880F08F09927EE0FA4
:103160009795879508950CD0BAC0B2D040F0A9D0F9
:1031700030F021F45F3F19F09BC05111E4C09EC0B4
:10318000BFD098F39923C9F35523B1F3951B550B81
:10319000BB27AA2762177307840738F09F5F5F4F2A
:1031A000220F331F441FAA1FA9F333D00E2E3AF06B
:1031B000E0E830D091505040E695001CCAF729D085
:1031C000FE2F27D0660F771F881FBB1F26173707D4
:1031D0004807AB07B0E809F0BB0B802DBF01FF2704
:1031E00093585F4F2AF09E3F510568F061C0ABC015
:1031F0005F3FECF3983EDCF3869577956795B7953E
:10320000F7959F5FC9F7880F911D9695879597F958
:103210000895E1E0660F771F881FBB1F62177307D1
:103220008407BA0720F0621B730B840BBA0BEE1FE6
:1032300088F7E0950895E89409C097FB3EF49095CF
:103240008095709561957F4F8F4F9F4F9923A9F07F
:10325000F92F96E9BB279395F6958795779567950E
:10326000B795F111F8CFFAF4BB0F11F460FF1BC052
:103270006F5F7F4F8F4F9F4F16C0882311F096E9E5
:1032800011C0772321F09EE8872F762F05C0662393
:1032900071F096E8862F70E060E02AF09A95660F4C
:1032A000771F881FDAF7880F9695879597F9089505
:1032B00097F99F6780E870E060E008959FEF80ECE9
:1032C000089500240A94161617061806090608958C
:1032D00000240A9412161306140605060895092EF2
:1032E0000394000C11F4882352F0BB0F40F4BF2B61
:1032F00011F460FF04C06F5F7F4F8F4F9F4F0895A1
:1033000057FD9058440F551F59F05F3F71F0479596
:10331000880F97FB991F61F09F3F79F0879508957B
:10332000121613061406551FF2CF4695F1DF08C09A
:10333000161617061806991FF1CF869571056105B7
:1033400008940895E894BB2766277727CB0197F95F
:1033500008950BD0C4CFB5DF28F0BADF18F095235D
:1033600009F0A6CFABCF1124EECFCADFA0F3959F13
:10337000D1F3950F50E0551F629FF001729FBB275C
:10338000F00DB11D639FAA27F00DB11DAA1F649F08
:103390006627B00DA11D661F829F2227B00DA11DBB
:1033A000621F739FB00DA11D621F839FA00D611D41
:1033B000221F749F3327A00D611D231F849F600D62
:1033C000211D822F762F6A2F11249F5750408AF09B
:1033D000E1F088234AF0EE0FFF1FBB1F661F771F27
:1033E000881F91505040A9F79E3F510570F060CF63
:1033F000AACF5F3FECF3983EDCF38695779567950F
:10340000B795F795E7959F5FC1F7FE2B880F911D44
:103410009695879597F90895FA01EE0FFF1F30965C
:103420002105310599F16115710561F48038BFE31B
:103430009B0749F168949038810561F08038BFEFAF
:103440009B0741F0992342F5FF3FE1053105210536
:1034500011F1E8940894E795D901AA2329F4AB2F38
:10346000BE2FF85FD0F310C0FF5F70F4A695E0F7B1
:10347000F73950F019F0FF3A38F49F779F930CD04A
:103480000F9007FC905808953EF018CF60E070E070
:1034900080E89FE308954FE79F775F934F933F93B3
:1034A0002F939ED02F913F914F915F9152DF05C096
:1034B00019F40EF0FDCE46CF01CF2ADFC8F39638BF
:1034C000C0F707F80F92E8942BE33AEA48EB5FE77E
:1034D0004EDF0F920F920F924DB75EB70F92C0D092
:1034E000E4EEF0E016D04F915F91EF91FF91E595FA
:1034F000EE1FFF1F49F0FE57E0684427EE0F441F00
:10350000FA95E1F74195550B32D00F9007FE26C092
:103510000895DF93CF931F930F93FF92EF92DF9263
:103520007B018C01689405C0DA2EEF011EDFFE01DD
:10353000E894A5912591359145915591AEF3EF0110
:10354000BFDDFE019701A801DA9479F7DF90EF90D3
:10355000FF900F911F91CF91DF9108959B01AC01D6
:1035600060E070E080E89FE3FECDA2CEACC0D0DE8C
:10357000E8F39923D9F3940F511DBBF391505040B8
:1035800094F059F0882332F0660F771F881F91500E
:103590005040C1F79E3F510544F7880F911D969505
:1035A000879597F908955F3FACF0983E9CF0BB2754
:1035B000869577956795B79508F4B1609395C1F7AF
:1035C000BB0F58F711F460FFE8CF6F5F7F4F8F4F4D
:1035D0009F4FE3CFB8CE0EF076C070CE689468CE21
:1035E00097DEC8F39923D1F3C6F3DF93CF931F93EC
:1035F0000F93FF92C92FDD2788232AF02197660FAA
:10360000771F881FDAF720E030E040E85FEB9FE3A8
:10361000883920F0803E30F021968F7740DDECE055
:10362000F1E003C03CDDE9E3F1E073DF8B01BE01B3
:10363000EC01FB2E6F5771097595771F880B990B5D
:10364000FCDD28E132E741E35FE38FDEAF2D980137
:10365000AE01FF900F911F91CF91DF9131DD3FCEF1
:10366000FA01DC01AA0FBB1F9B01AC01BF5728F474
:1036700022273327442750781FC0B75188F4AB2F37
:103680000024469537952795011CA395D2F3002079
:1036900069F0220F331F441FB395DAF30DD0FECC2F
:1036A00061307105A0E88A07B94630F49B01AC018E
:1036B0006627772788279078309621F020833183FA
:1036C0004283538308959F3F31F0915020F48795B2
:1036D00077956795B795880F911D9695879597F97A
:1036E0000895A1E21A2EAA1BBB1BFD010DC0AA1F43
:1036F000BB1FEE1FFF1FA217B307E407F50720F05B
:10370000A21BB30BE40BF50B661F771F881F991FD5
:103710001A9469F760957095809590959B01AC011E
:10372000BD01CF01089509D0A59F900DB49F900DC4
:10373000A49F800D911D11240895A29FB001B39FF5
:10374000C001A39F700D811D1124911DB29F700DAA
:10375000811D1124911D0895EF920F931F93CF9314
:10376000DF93E80147FD02C034E001C034E1042EDC
:10377000000C550B57FF03C0519541955109E32E9D
:10378000022F242FAE0139D2CE01DF91CF911F91AC
:103790000F91EF900895DC0101C06D9341505040AE
:1037A000E0F708950F931F93CF93DF93CDB7DEB764
:1037B0002E970FB6F894DEBF0FBECDBF0E891F89BE
:1037C00086E08C831A8309838FEF9FE79E838D8326
:1037D000AE01465E5F4F688D798DCE01019610D0A7
:1037E000EF81F885E00FF11F10822E960FB6F89446
:1037F000DEBF0FBECDBFDF91CF911F910F91089516
:103800002F923F924F925F926F927F928F929F92F0
:10381000AF92BF92CF92DF92EF92FF920F931F93DE
:10382000CF93DF93CDB7DEB72B970FB6F894DEBFFB
:103830000FBECDBF6C017B018A01FC01178216828D
:10384000838181FFBFC1CE0101963C01F6019381C6
:10385000F70193FD859193FF81917F01882309F4FE
:10386000ADC1853239F493FD859193FF81917F013C
:10387000853221F4B60190E024D4E8CF912C212C9C
:10388000312CFFE1F315D8F08B3279F038F4803227
:1038900079F08332A1F4232D20611DC08D3261F0B7
:1038A000803369F4232D216016C0832D8260382E69
:1038B000E32DE4603E2E2AC0F32DF8601DC037FCD6
:1038C0002DC020ED280F2A3040F08E32B9F436FC9E
:1038D00075C1232D2064322E19C036FE06C08AE041
:1038E000989E200D1124922E11C0EAE02E9E200DEC
:1038F0001124222EF32DF0623F2E08C08C3621F4C5
:10390000832D8068382E02C0883641F4F70193FD7C
:10391000859193FF81917F018111B3CF982F9F7D76
:103920009554933028F40C5F1F4F9FE399830DC08B
:10393000833631F0833771F0833509F055C020C0EC
:10394000F801808189830E5F1F4F88248394912C16
:10395000530112C02801F2E04F0E511CF801A08063
:10396000B18036FE03C0692D70E002C06FEF7FEFBB
:10397000C5019CD34C018201F32DFF773F2E15C06A
:10398000280122E0420E511CF801A080B18036FED1
:1039900003C0692D70E002C06FEF7FEFC5017BD3DC
:1039A0004C01F32DF0683F2E820133FC19C0822DAB
:1039B00090E088169906A0F4B60180E290E081D3E9
:1039C0002A94F5CFF50137FC859137FE81915F018F
:1039D000B60190E076D321102A9421E0821A910852
:1039E0008114910479F7E1C0843611F0893639F5F4
:1039F000F80137FE07C060817181828193810C5F7D
:103A00001F4F08C060817181072E000C880B990B35
:103A10000E5F1F4FF32DFF763F2E97FF09C0909545
:103A20008095709561957F4F8F4F9F4FF0683F2E27
:103A30002AE030E0A30181D3882E861844C0853760
:103A400031F4232D2F7EB22E2AE030E025C0932DB5
:103A5000997FB92E8F36C1F018F4883579F0AEC051
:103A6000803719F0883721F0A9C0E92FE061BE2E18
:103A7000B4FE0DC0FB2DF460BF2E09C034FE0AC099
:103A8000292F2660B22E06C028E030E005C020E1D4
:103A900030E002C020E132E0F801B7FE07C06081EB
:103AA0007181828193810C5F1F4F06C0608171819B
:103AB00080E090E00E5F1F4FA3013FD3882E861851
:103AC000FB2DFF773F2E36FE0DC0232D2E7FA22E1D
:103AD000891458F434FE0BC032FC09C0832D8E7E4D
:103AE000A82E05C0B82CA32C03C0B82C01C0B92C3B
:103AF000A4FE0FC0FE01E80DF11D8081803321F48A
:103B00009A2D997EA92E09C0A2FE06C0B394B39443
:103B100004C08A2D867809F0B394A3FC10C0A0FEDF
:103B200006C0B21480F4280C922C9B180DC0B2145D
:103B300058F4B60180E290E0C4D2B394F8CFB21446
:103B400018F42B1802C0982C212CA4FE0FC0B6012B
:103B500080E390E0B6D2A2FE16C0A1FC03C088E7C5
:103B600090E002C088E590E0B6010CC08A2D86780E
:103B700051F0A1FE02C08BE201C080E2A7FC8DE201
:103B8000B60190E09ED2891430F4B60180E390E053
:103B900098D29A94F8CF8A94F301E80DF11D8081B0
:103BA000B60190E08ED28110F6CF222009F44ECEDD
:103BB000B60180E290E085D22A94F7CFF6018681A3
:103BC000978102C08FEF9FEF2B960FB6F894DEBF60
:103BD0000FBECDBFDF91CF911F910F91FF90EF905E
:103BE000DF90CF90BF90AF909F908F907F906F901D
:103BF0005F904F903F902F9008958F929F92AF9239
:103C0000BF92CF92DF92EF92FF920F931F93CF93C9
:103C1000DF93CDB7DEB729970FB6F894DEBF0FBE9E
:103C2000CDBF6A01122FB02E2BE3201720F0FF2406
:103C3000F394F00E02C02CE3F22E0F2D27E0AE011C
:103C40004F5F5F4F50D1BC014981842F8970813013
:103C500031F0E1FC06C0E0FE06C090E205C09DE246
:103C600003C09BE201C090E05E2D507143FF3CC059
:103C7000911102C083E001C084E0811718F4212F64
:103C8000281B01C020E051110BC0F601822F30E249
:103C9000882319F031938150FBCFC20ED11C20E054
:103CA000992329F0D6019C93F60131966F01C60144
:103CB0000396E2FE0AC03EE4D6013C9341E411962D
:103CC0004C93119712963C9306C03EE6F601308362
:103CD00041E641833283FC01322F40E2332309F471
:103CE00042C041933150FACF42FF44C0911102C00B
:103CF00083E001C084E0811718F4212F281B01C044
:103D000020E051110BC0F601822F30E2882319F018
:103D100031938150FBCFC20ED11C20E0992329F0B2
:103D2000D6019C93F60131966F01C6010396E2FE1F
:103D30000BC039E4D6013C933EE411963C931197B5
:103D400036E412963C9307C039E6F60130833EE62E
:103D5000318336E63283FC01322F40E2332319F0FF
:103D600041933150FBCFFC01E20FF11D10828EEF29
:103D70009FEFA6C021E030E0911102C020E030E0CA
:103D8000161617061CF4FB01319602C0E1E0F0E0C4
:103D90002E0F3F1FBB2021F0EB2DF0E0319602C02B
:103DA000E0E0F0E02E0F3F1FE12FF0E02E173F077D
:103DB0001CF4121B212F01C020E08E2D887159F4B4
:103DC000F601822F30E2882319F031938150FBCF26
:103DD000C20ED11C20E0992329F0D6019C93F60154
:103DE00031966F0151110BC0F601822F90E38823A9
:103DF00019F091938150FBCFC20ED11C20E00F2D02
:103E0000060F9A81342F307144FF03C0913309F4B7
:103E10000150101624F4093018F008E001C001E048
:103E2000AB0177FF02C040E050E0FB01E41BF50B63
:103E3000A1E0B0E0AC0FBD1FEA0FFB1F8EE2A82E81
:103E40004B01801A91080B2D10E011950195110975
:103E50004F3FBFEF5B0721F4D601AC9211966D0185
:103E6000641775072CF08416950614F4818101C03F
:103E700080E3415051093196D60111967D014017DA
:103E8000510724F0D6018C936701E2CF64177507C0
:103E900039F4963320F4953319F4311101C081E3DC
:103EA000F6018083F701822F90E2882319F0919325
:103EB0008150FBCFF701E20FF11D108280E090E00E
:103EC00029960FB6F894DEBF0FBECDBFDF91CF911C
:103ED0001F910F91FF90EF90DF90CF90BF90AF9028
:103EE0009F908F900895283008F027E03327DA015B
:103EF000990F311D87FD916000966105710539F4B8
:103F000032602E5F3D9330E32A95E1F708959F3F9D
:103F100030F080387105610509F03C5F3C5F3D93EE
:103F2000913008F08068911DDF93CF931F930F931A
:103F3000FF92EF92192F987F9695E92F9695969577
:103F4000E90FFF27E054FE4F99273327EE24FF2483
:103F5000A701E70105900894079428F4360FE71E9F
:103F6000F81E491F511D660F771F881F991F069461
:103F7000A1F70590079428F4E70EF81E491F561F75
:103F8000C11D770F881F991F661F0694A1F7059022
:103F9000079428F4F80E491F561FC71FD11D880F1C
:103FA000991F661F771F0694A1F70590079420F4C8
:103FB000490F561FC71FD81F990F661F771F881FED
:103FC0000694A9F784911095177041F0D695C7957E
:103FD00057954795F794E7941A95C1F7E6E6F1E00F
:103FE00068941590159135916591959105907FE2B2
:103FF0007395E118F10A430B560BC90BD009C0F7B2
:10400000E10CF11E431F561FC91FD01D7EF47033F3
:1040100011F48A95E6CFE894015030F0080F0AF4C5
:104020000027021708F4202F2395022F7A3328F057
:1040300079E37D932A95E9F710C07D932A9589F657
:10404000069497956795379517951794E118F10A97
:10405000430B560BC90BD00998F023957E917395AD
:104060007A3308F070E37C932013B8F77E91706187
:104070007D9330F0839571E37D9370E32A95E1F7AA
:104080001124EF90FF900F911F91CF91DF9199270D
:1040900087FD90950895FC010590615070400110D6
:1040A000D8F7809590958E0F9F1F0895FC01615061
:1040B000704001900110D8F7809590958E0F9F1F4A
:1040C00008950F931F93CF93DF93FB01238121FD6D
:1040D00003C08FEF9FEF2CC022FF16C0468157818F
:1040E000248135814217530744F4A081B1819D0199
:1040F0002F5F3F4F318320838C93268137812F5F41
:104100003F4F3783268314C08B01EC01FB010084F1
:10411000F185E02D1995892BE1F6D80116968D9140
:104120009C911797019617969C938E931697CE01A4
:10413000DF91CF911F910F910895FA01AA2728309E
:1041400051F1203181F1E8946F936E7F6E5F7F4F64
:104150008F4F9F4FAF4FB1E03ED0B4E03CD0670FE0
:10416000781F891F9A1FA11D680F791F8A1F911D33
:10417000A11D6A0F711D811D911DA11D20D009F483
:1041800068943F912AE0269F11243019305D3193C5
:10419000DEF6CF010895462F4770405D4193B3E0AE
:1041A0000FD0C9F7F6CF462F4F70405D4A3318F055
:1041B000495D31FD4052419302D0A9F7EACFB4E006
:1041C000A6959795879577956795BA95C9F70097BE
:1041D0006105710508959B01AC010A2E069457955F
:1041E000479537952795BA95C9F7620F731F841FB6
:0A41F000951FA01D0895F894FFCF5D
:1041FA000000A040FF0300007A440080CA445365CF
:10420A006E736F7220566F6C742069732025367333
:10421A000D0A00464154333220202000222A2B2C3A
:10422A003A3B3C3D3E3F5B5D7C7F00809A45418E38
:10423A00418F804545454949498E8F9092924F99C1
:10424A004F555559999A9B9C9D9E9F41494F55A5FB
:10425A00A5A6A7A8A9AAABACADAEAFB0B1B2B3B48C
:10426A00B5B6B7B8B9BABBBCBDBEBFC0C1C2C3C47C
:10427A00C5C6C7C8C9CACBCCCDCECFD0D1D2D3D46C
:10428A00D5D6D7D8D9DADBDCDDDEDFE0E1E2E3E45C
:10429A00E5E6E7E8E9EAEBECEDEEEFF0F1F2F3F44C
:1042AA00F5F6F7F8F9FAFBFCFDFEFF5541525420EA
:1042BA00496E697469616C697A65640D0A004272B3
:1042CA0065617468616C797A657220496E6974698E
:1042DA00616C697A65640D0A005446542044697316
:1042EA00706C617920496E697469616C697A656478
:1042FA000D0A00446174616C6F672E747874004211
:10430A007265617468616C797A657220446174615E
:10431A006C6F67676572210D0A00446174616C6F86
:10432A00672E747874206572206F70726574746574
:10433A0074210D0A0050494E423720427574746F39
:10434A006E20507265737365640D0A00424C4F57B4
:10435A0020494E544F205448452053454E534F52FE
:10436A002121212100424143204C6576656C206958
:10437A0073202536730D0A00596F75722042414326
:10438A00204C6576656C20697320253673202525B7
:02439A000A0017
:00000001FF
