S01800004763634170706C69636174696F6E31372E7372656323
S113000071C0000079C0000077C0000075C0000016
S113001073C0000071C000006FC000006DC000001C
S11300206BC0000069C0000067C0000065C000002C
S113003063C0000061C000005FC000005DC000003C
S11300405BC0000059C0000057C0000055C000004C
S113005053C0000051C000004FC000004DC000005C
S11300604BC0000049C0000047C0000045C000006C
S113007043C0000041C000003FC000003DC000007C
S11300803BC0000039C0000037C0000035C000008C
S113009033C0000031C000002FC000002DC000009C
S11300A02BC0000029C0000027C0000025C00000AC
S11300B023C0000021C000001FC000001DC00000BC
S11300C01BC0000019C0000017C0000015C00000CC
S11300D013C0000011C000000FC000000DC00000DC
S11300E00BC0000011241FBECFEFD1E2DEBFCDBF95
S11300F000E00CBFEBD1DCC383CFCF93DF931F921F
S1130100CDB7DEB7898388E290E02981FC012083A2
S11301108BE290E02BE230E0F90120812F77FC01A3
S1130120208384E390E024E330E0F90120812D7FF3
S1130130FC01208384E390E024E330E0F901208192
S11301402B7FFC012083000084E390E024E330E073
S1130150F90120812460FC012083000000000F903D
S1130160DF91CF910895CF93DF931F921F92CDB764
S1130170DEB79A83898382E290E029813A81232F32
S11301803327FC01208388E290E02981FC0120834D
S11301908BE290E02BE230E0F90120812068FC0141
S11301A0208384E390E024E330E0F90120812D7F73
S11301B0FC01208384E390E024E330E0F901208112
S11301C02B7FFC012083000084E390E024E330E0F3
S11301D0F90120812460FC012083000000000F90BD
S11301E00F90DF91CF910895CF93DF93CDB7DEB712
S11301F06C970FB6F894DEBF0FBECDBF8AE290E0D5
S11302002AE230E0F90120812760FC01208383E3A6
S113021090E023E330E0F90120812068FC01208391
S113022081E290E02FEFFC01208387E290E02FEF42
S1130230FC01208384E390E024E330E0F901208191
S11302402760FC0120838BE290E02BE230E0F9018F
S113025020812068FC01208384E390E024E330E0E3
S1130260F90120812E7FFC01208380E090E0AAEF39
S1130270B3E489839A83AB83BC8320E030E04AE70C
S113028055E469817A818B819C8187D2DC01CB0121
S11302908B8B9C8BAD8BBE8B20E030E040E85FE322
S11302A06B897C898D899E89F7D188232CF481E020
S11302B090E0988F8F8B3BC020E03FEF4FE757E4EF
S11302C06B897C898D899E8964D218163CF520E05F
S11302D030E040E251E469817A818B819C815DD276
S11302E0DC01CB01BC01CD01DBD1DC01CB01988F5A
S11302F08F8B0FC080E991E09A8F898F898D9A8DB9
S11303000197F1F79A8F898F8F89988D0197988F2C
S11303108F8B8F89988D892B69F713C06B897C89A2
S11303208D899E89BDD1DC01CB01988F8F8B8F89FC
S1130330988D9C8F8B8F8B8D9C8D0197F1F79C8F63
S11303408B8F84E390E024E330E0F9012081216085
S1130350FC01208380E090E0A2E0B3E48D839E83DF
S1130360AF83B88720E030E04AE755E46D817E81B1
S11303708F81988512D2DC01CB0189879A87AB875C
S1130380BC8720E030E040E85FE369857A858B85AF
S11303909C8582D188232CF481E090E09E878D8710
S11303A03BC020E03FEF4FE757E469857A858B85B2
S11303B09C85EFD118163CF520E030E040E251E492
S11303C06D817E818F819885E8D1DC01CB01BC01F0
S11303D0CD0166D1DC01CB019E878D870FC080E9FA
S11303E091E0988B8F878F8598890197F1F7988B87
S11303F08F878D859E8501979E878D878D859E85A8
S1130400892B69F713C069857A858B859C8548D1CA
S1130410DC01CB019E878D878D859E859A8B898B88
S113042089899A890197F1F79A8B898B23D018D0FF
S113043088E02AD085E039D000006C960FB6F89495
S1130440DEBF0FBECDBFDF91CF910895CF93DF9371
S1130450CDB7DEB788E251DE0000DF91CF91089579
S1130460CF93DF93CDB7DEB789E247DE0000DF919B
S1130470CF910895CF93DF93CDB7DEB781E13DDE11
S11304800000DF91CF910895CF93DF931F92CDB7F2
S1130490DEB7898386E331DE8981882F90E063DECD
S11304A000000F90DF91CF910895CF93DF931F92B7
S11304B0CDB7DEB789838AE320DE8981882F90E077
S11304C052DE00000F90DF91CF910895CF93DF9318
S11304D0CDB7DEB76C970FB6F894DEBF0FBECDBFB5
S11304E083DEBEDF80E090E0AAE7B4E489839A83E8
S11304F0AB83BC8320E030E04AE755E469817A812C
S11305008B819C814AD1DC01CB018B8B9C8BAD8B85
S1130510BE8B20E030E040E85FE36B897C898D8905
S11305209E89BAD088232CF481E090E0988F8F8B39
S11305303BC020E03FEF4FE757E46B897C898D890E
S11305409E8927D118163CF520E030E040E251E4C2
S113055069817A818B819C8120D1DC01CB01BC0132
S1130560CD019ED0DC01CB01988F8F8B0FC080E929
S113057091E09A8F898F898D9A8D0197F1F79A8FDF
S1130580898F8F89988D0197988F8F8B8F89988DFC
S1130590892B69F713C06B897C898D899E8980D0EA
S11305A0DC01CB01988F8F8B8F89988D9C8F8B8FDB
S11305B08B8D9C8D0197F1F79C8F8B8F47DF80E0AB
S11305C090E0AAE7B4E48D839E83AF83B88720E0EC
S11305D030E04AE755E46D817E818F819885DDD0D6
S11305E0DC01CB0189879A87AB87BC8720E030E0A8
S11305F040E85FE369857A858B859C854DD08823A7
S11306002CF481E090E09E878D873BC020E03FEF93
S11306104FE757E469857A858B859C85BAD018168F
S11306203CF520E030E040E251E46D817E818F8131
S11306309885B3D0DC01CB01BC01CD0131D0DC0104
S1130640CB019E878D870FC080E991E0988B8F87BF
S11306508F8598890197F1F7988B8F878D859E8573
S113066001979E878D878D859E85892B69F713C099
S113067069857A858B859C8513D0DC01CB019E87A7
S11306808D878D859E859A8B898B89899A89019717
S1130690F1F79A8B898B25CF2FD008F481E0089548
S11306A057D088F09F5790F0B92F9927B751A0F0F1
S11306B0D1F0660F771F881F991F1AF0BA95C9F7F2
S11306C012C0B13081F05ED0B1E008955BC0672FF5
S11306D0782F8827B85F39F0B93FCCF386957795A2
S11306E06795B395D9F73EF490958095709561958B
S11306F07F4F8F4F9F4F0895990F0008550FAA0BF6
S1130700E0E8FEEF16161706E807F907C0F0121620
S11307101306E407F50798F0621B730B840B950B23
S113072039F40A2661F0232B242B252B21F4089578
S11307300A2609F4A140A6958FEF811D811D089515
S113074057FD9058440F551F59F05F3F71F047957E
S1130750880F97FB991F61F09F3F79F08795089563
S1130760121613061406551FF2CF4695F1DF08C082
S1130770161617061806991FF1CF8695710561059F
S113078008940895E894BB2766277727CB0197F947
S11307900895B2DF08F48FEF08950BD078C069D0C4
S11307A028F06ED018F0952309F05AC05FC01124C8
S11307B0EACFC6DFA0F3959FD1F3950F50E0551F04
S11307C0629FF001729FBB27F00DB11D639FAA27A2
S11307D0F00DB11DAA1F649F6627B00DA11D661FF1
S11307E0829F2227B00DA11D621F739FB00DA11D12
S11307F0621F839FA00D611D221F749F3327A00DCC
S1130800611D231F849F600D211D822F762F6A2F67
S113081011249F5750408AF0E1F088234AF0EE0FEC
S1130820FF1FBB1F661F771F881F91505040A9F7F9
S11308309E3F510570F014C0A6CF5F3FECF3983E85
S1130840DCF3869577956795B795F795E7959F5F60
S1130850C1F7FE2B880F911D9695879597F90895FA
S113086097F99F6780E870E060E008959FEF80EC5F
S1130870089500240A941616170618060906089502
S113088000240A9412161306140605060895092E68
S11308900394000C11F4882352F0BB0F40F4BF2BD7
S11308A011F460FF04C06F5F7F4F8F4F9F4F089517
S10708B0F894FFCFE6
S9030000FC
